:020000040800F2
:10000000400B00206901000805070008FD060008F4
:100010000107000857030008290900080000000034
:100020000000000000000000000000009908000827
:10003000FB06000800000000470700089B080008B6
:100040008301000883010008830100088301000880
:100050008301000883010008830100088301000870
:1000600000000000830100088301000883010008EC
:10007000830100080909000883010008000000004E
:1000800083010008830100080000000083010008CC
:100090008301000883010008830100088301000830
:1000A0008301000883010008830100088301000820
:1000B00083010008000000000000000000000000B4
:1000C00083010008000000008301000800F002F82E
:1000D00000F03AF80AA090E8000C82448344AAF1A8
:1000E0000107DA4501D100F02FF8AFF2090EBAE8A6
:1000F0000F0013F0010F18BFFB1A43F0010318475C
:100100004422000064220000103A24BF78C878C15D
:10011000FAD8520724BF30C830C144BF04680C600D
:10012000704700000023002400250026103A28BF55
:1001300078C1FBD8520728BF30C148BF0B60704759
:100140001FB51FBD10B510BD00F0CCF81146FFF76C
:10015000F7FF01F063F800F0EAF803B4FFF7F2FFED
:1001600003BC00F0F1F80000094880470948004747
:10017000FEE7FEE7FEE7FEE7FEE7FEE7FEE7FEE757
:10018000FEE7FEE704480549054A064B70470000B4
:100190009D080008CD00000840050020400B00200D
:1001A000400700204007002053EA020C00F069805D
:1001B0002DE9F04B4FF00006002B1FBFB3FA83F57B
:1001C00003FA05F424FA05F65E4012BF1643B2FAAC
:1001D00082F502FA05F4C5F120051EBF22FA05FCDE
:1001E00044EA0C04203556EA044C4FEA144418BF84
:1001F000641C4FF000084FF00009904271EB030CB3
:1002000039D3002919BFB1FA81F701FA07F6B0FA1C
:1002100080F700FA07F6C7F120071EBF20FA07FC97
:1002200046EA0C062037B6FBF4FCA7EB0507103FA7
:1002300007F01F0BCBF120060CFA0BFB2CFA06F68D
:1002400044BFB3460026202FA4BF5E464FF0000BEC
:100250005BEA060C08BF4FF0010B19EB0B09ABFB77
:10026000027C48EB0608C01B06FB02CC0BFB03CC50
:1002700071EB0C01C1E70B46024641464846BDE81A
:10028000F08B13B54FF000004FF00001AFF300808A
:10029000BDE81C40704740EA0103024630B59B07A9
:1002A00010D14FF0013400E008C208C91D1B9D4366
:1002B00015EAC41FF8D013F0FF0102F8011B0DD09E
:1002C0001B0AF8E711F8013B002B02F8013B05D0AF
:1002D00011F8013B002B02F8013BF3D130BD704710
:1002E00070477047754600F02BF8AE46050069462A
:1002F000534620F00700854618B020B5FFF742FFAF
:10030000BDE820404FF000064FF000074FF0000816
:100310004FF0000B21F00701AC46ACE8C009ACE897
:10032000C009ACE8C009ACE8C0098D46704710B5FB
:100330000446AFF300802046BDE81040FFF70DBF34
:1003400000487047DC04002001491820ABBEFEE7DE
:1003500026000200704700BFFEE7000010B5002134
:10036000902000F009F901214FF0904000F0C8FE04
:100370000121024800F0C4FE10BD00000014004836
:1003800070B50546002401214FF0904000F0BAFE00
:1003900045F00105284600F0C5F800F0CDFF002625
:1003A00017E064100221124800F0F5FE08B144F095
:1003B000800401210E4800F0A5FE012000F078FE27
:1003C00001210B4800F09CFE012000F071FE701C22
:1003D000C6B2082EE5DB01F071FF01214FF090401D
:1003E00000F08EFE0221024800F08AFE204670BD19
:1003F0000014004870B505468C20FFF7C1FF044685
:100400002046E21704EB12721211A4EB02122146ED
:10041000E31704EB13731B1103EB830302EB43029B
:100420006A708820FFF7ACFF04462046E21704EB11
:1004300012721211A4EB02122146E31704EB13739C
:100440001B1103EB830302EB4302AA708620FFF724
:1004500097FF04462046E21704EB12721211A4EB38
:1004600002122146E31704EB13731B1103EB830302
:1004700002EB4302EA708420FFF782FF0446204625
:10048000E21704EB12721211A4EB02122146E317D9
:1004900004EB13731B1103EB830302EB43022A717A
:1004A0008220FFF76DFF04462046E21704EB12722C
:1004B0001211A4EB02122146E31704EB13731B1174
:1004C00003EB830302EB43026A718020FFF758FFBE
:1004D00000F07F042046E21704EB12721211A4EB25
:1004E00002122146E31704EB13731B1103EB830382
:1004F00002EB4302AA718A20FFF742FF044620461E
:10050000E21704EB12721211A4EB02122146E31758
:1005100004EB13731B1103EB830302EB4302EA7139
:1005200070BD000070B5044600251FE004F0010016
:1005300020B102210F4800F0E5FD03E002210D4843
:1005400000F0DEFD012000F0B3FD0121094800F0BC
:10055000D9FD012000F0ACFD0121064800F0D0FDDE
:10056000012000F0A5FD6410681CC5B2082DDDDB7C
:1005700070BD00000014004870B506460C4601210D
:100580004FF0904000F0BEFD012000F091FD30469C
:10059000FFF7C8FF00251CE004F0010020B1022194
:1005A000124800F0AFFD03E00221104800F0A8FD62
:1005B00001210E4800F0A6FD012000F079FD012187
:1005C0000A4800F09DFD012000F072FD6410681CD7
:1005D000C5B2082DE0DB01214FF0904000F090FD06
:1005E0000221024800F08CFD70BD0000001400489C
:1005F00070B5044600218E20FFF7BEFF012000F0F9
:1006000057FD80210846FFF7B7FF60780A2190FB6D
:10061000F1F201FB12010A2290FBF2F001EB001053
:10062000C5B229468C20FFF7A7FFA0780A2190FBCE
:10063000F1F201FB12010A2290FBF2F001EB001033
:10064000C5B229468820FFF797FFE0780A2190FB82
:10065000F1F201FB12010A2290FBF2F001EB001013
:10066000C5B229468620FFF787FF20790A2190FB33
:10067000F1F201FB12010A2290FBF2F001EB0010F3
:10068000C5B229468420FFF777FF60790A2190FBE5
:10069000F1F201FB12010A2290FBF2F001EB0010D3
:1006A000C5B229468220FFF767FFA0790A2190FB97
:1006B000F1F201FB12010A2290FBF2F001EB0010B3
:1006C000C5B229468020FFF757FFE0790A2190FB49
:1006D000F1F201FB12010A2290FBF2F001EB001093
:1006E000C5B229468A20FFF747FF80218E20FFF7F9
:1006F00043FF012000F0DCFC70BD704700BFFEE747
:1007000000BFFEE77047F0B503460C4603F0070153
:10071000C1F10700042801D9042001E0C1F107005C
:100720000646081D072801D2002000E0C81E054625
:100730000120B040401E2040A8400127AF407F1E4E
:1007400017403843F0BD70472DE9F04704460E4688
:1007500017469846DDF8209000BF2448007808B975
:1007600000F0E4F800BF21484069A04239D9EFF316
:1007700011810846202181F3118800BF00BF0CB30E
:1007800004EB44021949603141F8326004EB440241
:1007900001EBC2014F6004EB44021449603101EBEC
:1007A000C201C1F80880002204EB44030F49603104
:1007B00001EBC3010A6104EB44030C49603101EB16
:1007C000C301CA6004EB44020849603101EBC20175
:1007D000C1F81490C1B281F3118800BF00BF002599
:1007E00001E04FF0FF352846BDE8F08724000020E7
:1007F0002DE9F04704460E4617469846DDF820904E
:1008000000BF2448007808B900F090F800BF2148E4
:100810000069A04239D9EFF311810846202181F304
:10082000118800BF00BF0CB304EB44021949183112
:1008300041F8326004EB440201EBC2014F6004EB6B
:1008400044021449183101EBC201C1F808800022AA
:1008500004EB44030F49183101EBC3010A6104EBB7
:1008600044030C49183101EBC301CA6004EB440294
:100870000849183101EBC201C1F81490C1B281F3EB
:10088000118800BF00BF002501E04FF0FF3528466A
:10089000BDE8F087240000207047704717480068C3
:1008A00020F00100401C1549086000BF1348006893
:1008B000C0F340000028F9D01048406820F0030041
:1008C0000E49486000BF0D484068C0F38100002811
:1008D000F9D10A4800680A49084008490860002020
:1008E000486041F61070C8624FF4801008634FF4FE
:1008F0001F008860C8030349086070470010024069
:10090000FFFFF2FE08ED00E010B50121054801F0FF
:1009100032F828B10121034801F01FF800F070FF00
:1009200010BD0000002C014000BFFEE710B5124CC6
:1009300003202061606111A0A0611349E1614FF4BF
:10094000806121620021A1626162E1620BA02066E8
:100950000E4961661021A16600212167E166616789
:100960000BA1E01DFFF797FC0AA12046FFF793FCBF
:100970002020A07110BD0000240000205465726D7D
:10098000696E616C00000000CC000020CC040020E7
:1009900052545400534547474552000002480068EE
:1009A000C0F30220704700000CED00E010B50028F5
:1009B00004DB0A07130E054A135406E00A07140E57
:1009C000034A00F00F031B1FD45410BD00E400E0E5
:1009D00018ED00E008B500F015FBFFF7BFFC0020A4
:1009E000034602460EA10090FFF702FF00200346D7
:1009F00002460DA10090FFF7A7FE02210C4800F06F
:100A000081FBC82000F01AFB08E000F0A9FC0122DD
:100A10001146084800F0A4FF00BFFEE7F5E700001C
:100A20005254545550000000525454444F574E00F5
:100A300000040048002C014078B505461A480068BB
:100A400000902C462BE09DF80210BDF8000000F04D
:100A50003FFB06469DF80300B04207DA9DF803000D
:100A6000401CC0B28DF80300641E17E001208DF811
:100A700003009DF802000C2806DA9DF80200401CD5
:100A8000C0B28DF8020008E001208DF80200BDF828
:100A90000000401C80B2ADF80000641E00BF002CB6
:100AA000D1D1009878BD00003C23000871B581B019
:100AB0002948006800900024BDF80400BDF800102B
:100AC00088421DDBBDF80400BDF80010884205D146
:100AD0009DF806009DF80210884211DBBDF8040065
:100AE000BDF8001088420DD19DF806009DF8021057
:100AF000884207D19DF807009DF80310884201DA6B
:100B000000207CBDBDF800500BE0284600F06DFBD6
:100B100010B14FF4B77001E040F26D100444681C4E
:100B200085B2BDF80400A842EFDC012607E0BDF85D
:100B30000400314600F0CCFA0444701CC6B29DF8A3
:100B40000600B042F3DC9DF807009DF80310401A40
:100B500004442046D5E700004023000803494968C3
:100B600060F30711014A5160704700000010024015
:100B70000349496860F30A21014A51607047000047
:100B8000001002400349496860F3CD21014A5160D9
:100B90007047000000100240012807D10749496D45
:100BA00021F030013031054A516505E00349496DB6
:100BB00021F03001014A51657047000000100240E9
:100BC000052827D2DFE800F0030A11181F00134A96
:100BD000126861F30002114B1A601CE00F4A1268A0
:100BE00061F310420D4B1A6015E00C4A126861F374
:100BF00018620A4B1A600EE0084A126A61F300029A
:100C0000064B1A6207E0054A526A61F30002034B81
:100C10005A6200E000BF00BF7047000000100240B1
:100C20002DE9F04F85B004460025AA46AB460026C4
:100C3000A9460020049003900290019000F0DAF998
:100C40000090009820B1012812D0022875D112E03E
:100C50005648406DC0F3402038B15448006BC0F393
:100C6000406010B15248206001E05248206067E0C7
:100C70005048206064E04D484068C0F3004B4B484A
:100C8000C06AC00F30BB49484068C0F3834547483D
:100C90004068C0F3417ABAF1000F01D10F2D04D1A1
:100CA0004FEA0A10401C054400E0AD1CBBF1000FE8
:100CB00003D14148684320603DE03C484068C0F3B0
:100CC000404018B13C486843206034E039486843EC
:100CD000206030E03548C06AC0F303100390334809
:100CE000C06AC0F3082002903048C06A00F00700D4
:100CF0000190BBF1000F02D12F48049009E02B486E
:100D00004068C0F3404010B12B48049001E02948EE
:100D100004900121019801FA00F0039900FB01FC05
:100D200002990498A0FB01700146624600233846F0
:100D3000FFF73AFA206003E0FFE71E48206000BF9B
:100D400000BF1A484068C0F303161C4810F806900C
:100D5000206820FA09F0606014484068C0F3022659
:100D6000174810F80690606820FA09F0E0600F4814
:100D70004068C0F3C226134810F80690606820FA55
:100D800009F0A06009484068C0F300760748406851
:100D9000C0F3813040EA86060B4810F80690A06840
:100DA000B0FBF9F0206105B0BDE8F08F0010024003
:100DB000006CDC0200127A0000093D00F0220008FD
:100DC00000230008082300081023000810B501467E
:100DD0000020094B03EB1142126801F01F040123AC
:100DE000A3401A4001F01F040123A3409A4200D0FF
:100DF00000E0012010BD00000010024010B50129E4
:100E00000DD10E4B03EB1042126800F01F040123BA
:100E1000A3401A43094C04EB10431A600CE0074B43
:100E200003EB1042126800F01F040123A3409A4311
:100E3000024C04EB10431A6010BD00000010024089
:100E400030B502460020002372B9354C646824F4A2
:100E50008034334D6C6033482C46246B24F000748E
:100E600004F100742C6319E02D4C646824F4803480
:100E700004F580342A4D6C60012A06D12A482C469C
:100E8000646824F400346C6008E02648244C6468EC
:100E900024F4003404F50034214D6C60234CA0424E
:100EA00004D9234CA04201D2002326E0214CA042C9
:100EB00004D9214CA04201D201231EE01F4CA042C4
:100EC00004D91F4CA04201D2022316E01C4CA042C0
:100ED00004D91C4CA04201D203230EE01A4CA042BC
:100EE00004D91A4CA04201D2042306E0174CA042B8
:100EF00003D9174CA04200D20523094C646861F362
:100F00009544074D6C600D09054C646865F35E748B
:100F1000034D6C602C46E46A63F31A64EC6230BDE6
:100F20000010024000093D0000127A0060823B0080
:100F3000404B4C0080584F00105E5F0094357700A6
:100F4000101B7F0020BCBE00286BEE0030D73D0197
:100F5000D8E9DC011648006820F00100401C144963
:100F6000086000BF12480068C0F340000028F9D0B4
:100F70000F48406820F003000D49486000BF0C484E
:100F80004068C0F381000028F9D109480068094988
:100F90000840074908600020486041F61070C862A8
:100FA0004FF4801008634FF41F0088607047000002
:100FB00000100240FFFFF2FE0D49496860F3010195
:100FC0000B4A516000BF00BF00BF00BF00BF00BFA1
:100FD00000BF00BF00BF00BF00BF00BF00BF00BF19
:100FE00000BF00BF00BF00BF00BF00BF70470000D0
:100FF0000010024002484068C0F3810070470000C2
:101000000010024010B5042000F0E6FB074800681D
:101010000749B0FBF1F007490860084600684FF443
:101020007A7148430449086010BD000004000020A4
:1010300040420F001C00002020000020002131E071
:1010400032280ADD194A126832235A434FF0E0234E
:101050005A61A0F1320290B206E0144A126842438B
:101060004FF0E0235A61002000224FF0E0239A6104
:101070001A46126942F001021A6100BF4FF0E022E5
:10108000116901F001021AB101F48032002AF5D091
:101090004FF0E022126922F001024FF0E0231A61C2
:1010A00000229A610028CBD1704700002000002068
:1010B000002107E042F6E06100BF0A1EA1F1010332
:1010C00099B2FAD1021EA0F1010398B2F2D1704791
:1010D00030B505460C46022C05D1284600F085F8AF
:1010E00008B11D2030BD012C05DB0C2C03DC601E7B
:1010F0000249085CF6E70020F4E70000302300080E
:1011000081627047816170474FF6FF710160002175
:101110008171017141710121C171704770B50A4639
:1011200000211488A3B233E003F001046CB3046817
:101130004E000325B540AC43046094794D00AC40AB
:1011400005682C430460446801258D40AC4344602D
:10115000446815798D402C43446084684E00032513
:10116000B540AC438460D4794D00AC4085682C43D5
:101170008460C4684E000325B540AC43C460547914
:101180004D00AC40C5682C43C4605B104C1CA1B240
:10119000002BC9DC70BD0246002013690B408B4256
:1011A00000D000E001207047F0B5002300244D0777
:1011B000ED0E02FA05F3CD105DB1456A4E07F70E4C
:1011C0000F26BE40B5434562456A45EA03044462C2
:1011D0000AE0056A4E07F70E0F26BE40B5430562CA
:1011E000056A45EA03040462F0BD0146CA1701EB33
:1011F00092729210A1EB82022AB9642291FBF2F35F
:1012000002FB131232B94FF4C87291FBF2F302FBE6
:1012100013120AB9012070470020FCE700F0E2FE3B
:1012200000F044FE00F0DCFD00F024FF00F0F2FFCF
:1012300000F064FE00F07AFD00F0C4FF00F03CFF17
:1012400001E0FFF7C7FBFCE72DE9F0470B4614462A
:101250004FF0000C00BF2C4A1268C2F302211D4659
:1012600026460A46C2F10709B9F1040F02D94FF028
:10127000040901E0C2F10709C84602F10409B9F105
:10128000070F02D24FF0000901E0A2F103094F4617
:101290004FF0010909FA08F9A9F1010909EA05095C
:1012A00009FA07F94FF0010A0AFA07FAAAF1010A46
:1012B0000AEA060A49EA0A09CC46014662460029BA
:1012C00004DB15072E0E114D6E5407E015072F0E87
:1012D0000D4D0C3501F00F06361FAF5500BF01460E
:1012E00000290DDB00BF00BF01F01F050122AA404D
:1012F0004D09AD0005F1E025C5F8002100BF00BF94
:1013000000BFBDE8F08700000CED00E000E400E065
:1013100000BF00F00702064B19684FF6FF031940A3
:10132000044B0B4343EA0221014B196000BF704795
:101330000CED00E00000FA051CB56846FFF7E4FE7E
:1013400000208DF806000220009000208DF8050096
:1013500069460248FFF7E2FE1CBD00000014004889
:1013600008B53848006800903748FFF743F836481A
:10137000C0788DF80300344880788DF80200324838
:10138000407800F5FA60ADF800000098FFF78EFB9A
:101390002E4908602C4880792D4908702A484079E8
:1013A000487029480079887028480078C870274814
:1013B0000068B0F5007F07D324480088C0F3002000
:1013C00040F08000087105E020480088C0F300204C
:1013D0001F49087101224021002000F0EBF8002293
:1013E000C021104600F0E6F819480278802100205C
:1013F00000F0E0F8164842788121002000F0DAF889
:10140000134882788221002000F0D4F81048C27876
:101410008321002000F0CEF80D48027984210020BD
:1014200000F0C8F80122C021002000F0C3F800221B
:10143000C021104600F0BEF800224021104600F006
:10144000B9F808BD282300080D000020180000206E
:10145000080000200021017041708170C17001718D
:10146000417181710121C1717047026861F3861277
:10147000026070470146C86880B27047C16070471B
:101480000246002093680B4003B900E0012070473A
:10149000C26922F40062C2610A7862B9026822F469
:1014A00000420260026822F480420260026822F474
:1014B0008062026036E00A78012A0ED1026822F4C6
:1014C00000420260026822F480420260026822F454
:1014D000806202F58062026024E00A78022A0ED15E
:1014E000026822F4004202F500420260026822F41F
:1014F00080420260026822F48062026012E00A7890
:10150000032A0FD1026822F4004202F50042026071
:10151000026822F4804202F580420260026822F4EE
:1015200080620260CB79026863F3492202604A78E4
:10153000012A09D1CA79012A06D1026822F48072EF
:1015400002F58072026003E0026822F48072026099
:101550004B78026863F3820202608A78072A0BDD07
:10156000426822F4807202F5807242608A780368D1
:1015700062F3C503036008E0426822F480724260AF
:101580008B78026863F3C5020260CB78026863F36C
:10159000C71202600B79026863F3CB2202604B79B9
:1015A000026863F3410202608B79026863F3000210
:1015B000026070472DE9F04107460E4614460221AD
:1015C0002E48FFF79DFD00BF02212D48FFF758FF71
:1015D0000028F9D031462A48FFF750FF00BF02210A
:1015E0002748FFF74DFF0028F9D021462448FFF790
:1015F00045FF00BF02212248FFF742FF0028F9D033
:1016000000211F48FFF73AFF00BF02211C48FFF7E7
:1016100037FF0028F9D000211948FFF72FFF00BF3E
:1016200002211748FFF72CFF0028F9D000211448A9
:10163000FFF724FF00BF01211148FFF721FF002819
:10164000F9D00F48FFF716FFC5B200BF01210C48C3
:10165000FFF716FF0028F9D00948FFF70BFFC5B2C6
:1016600000BF80210648FFF70BFF0128F9D00221B7
:101670000248FFF747FD2846BDE8F0810004004816
:10168000003001402DE9FF5F002400250026A1461F
:10169000A246A3460020039002900190FFF7AAFC07
:1016A0000090009820B1012814D0022874D115E0D0
:1016B0004348406DC0F3402040B14148006BC0F347
:1016C000406018B13F484049086002E03F483E4949
:1016D000086065E03D483C49086061E03848406882
:1016E000C0F300463648C06AC00F20BB344840688B
:1016F000C0F3834432484068C0F341750DB90F2CE4
:1017000003D12801401C044400E0A41C26B9304841
:1017100060432D4908603DE029484068C0F34040DF
:1017200020B12B4860432849086033E027486043D4
:10173000254908602EE02248C06AC0F303100390D8
:101740001F48C06AC0F3082002901D48C06A00F01C
:101750000700019016B9DFF878B009E01848406832
:10176000C0F3404010B1DFF868B001E0DFF85CB0D2
:101770000121019801FA00F0039900FB01FC029895
:10178000ABFB00700146624600233846FEF70CFDB5
:101790000D49086004E0FFE70C480B49086000BFF2
:1017A00000BF07484068C0F303190A4810F809A0B1
:1017B0000548006820FA0AF003490860BDE8FF9F69
:1017C00000100240006CDC020400002000127A00CD
:1017D00000093D0018230008042808D14FF0E0213B
:1017E000096941F004014FF0E022116107E04FF078
:1017F000E021096921F004014FF0E02211617047F6
:1018000010B586B02C4800680190002211461046A1
:10181000FFF7D0FE8DF81000002201211046FFF7DF
:10182000C9FE8DF81100002202211046FFF7C2FE0A
:101830008DF81200002203211046FFF7BBFE8DF841
:101840001300002204211046FFF7B4FE8DF81400A7
:101850009DF813009DF8141001F0010100EB012424
:101860009DF8140000F0800008B104F500742046D3
:10187000FFF7E2F801909DF810008DF80E009DF83A
:1018800011008DF80D009DF812008DF80C009DF8E8
:1018900007008DF80B009DF806008DF80A00BDF8D2
:1018A0000400A0F5FA60C0B28DF8090002A8FEF7A6
:1018B0009FFE06B010BD00002C230008C1628262AA
:1018C000436923F001035B1C436170478B79426CD1
:1018D00063F30C3242640B78426C63F30702426498
:1018E0004B79426C63F38A2242640B79426C63F356
:1018F000CB2242644B78426C63F34D324264CB7826
:10190000426C63F38E3242648B78426C63F309223B
:10191000426470470B4633B1022B06D0042B06D02D
:10192000062B08D105E0426306E0826304E0C2634F
:1019300002E0026400E000BF00BF7047026861F38C
:10194000092202607047026861F306120260704764
:10195000026861F3000202607047CA430261704787
:10196000012A03D1C3680B43C36003E012B9C36803
:101970008B43C36070470246002013690B4023B1BC
:10198000D3680B400BB1012000E00020704710B578
:101990000B4633B1022B09D0042B0CD0062B14D1EB
:1019A0000EE0846962F3C30484610FE0846962F32A
:1019B000CB2484610AE0C46962F3C304C46105E016
:1019C000C46962F3CB24C46100E000BF00BF10BD56
:1019D0002DE9F04100250026002701F108035C1CD9
:1019E00092F801C00CFA03FC1FFA8CF592F802C0C1
:1019F0000CFA04FC1FFA8CF6D0F804C04FF0010872
:101A000008FA04F82CEA080CC0F804C0D0F804C0A6
:101A10004CEA060CC0F804C0D0F804C04FF001082E
:101A200008FA03F82CEA080CC0F804C0D0F804C087
:101A30004CEA050CC0F804C00F4637B1022F0DD098
:101A4000042F14D0062F24D11AE092F80080D0F889
:101A500018C068F3061CC0F818C01BE092F800809C
:101A6000D0F818C068F30E3CC0F818C012E092F825
:101A70000080D0F81CC068F3061CC0F81CC009E048
:101A800092F80080D0F81CC068F30E3CC0F81CC06F
:101A900000E000BF00BF4FF0010C0CEB41034FF022
:101AA000030C0CEB410492F803C00CFA03FC1FFA80
:101AB0008CF592F804C00CFA04FC1FFA8CF64FF077
:101AC000010808FA04F8D0F820C02CEA080CC0F885
:101AD00020C0D0F820C04CEA060CC0F820C04FF05F
:101AE000010C0CFA03FCD0F8208028EA0C08C0F89E
:101AF0002080D0F820C04CEA050CC0F820C04B0074
:101B00004FF0020C0CEB410492F805C04FEA41087B
:101B10000CFA08FC1FFA8CF592F806C04FF0020888
:101B200008EB41080CFA08FC1FFA8CF64FF001088C
:101B300008FA04F8D0F820C02CEA080CC0F820C03D
:101B4000D0F820C04CEA060CC0F820C04FF00108C5
:101B500008FA03F8D0F820C02CEA080CC0F820C01E
:101B6000D0F820C04CEA050CC0F820C0BDE8F081D8
:101B700010B50B4633B1022B09D0042B0CD0062B29
:101B800014D10EE0846962F3820484610FE08469F9
:101B900062F38A2484610AE0C46962F38204C46146
:101BA00005E0C46962F38A24C46100E000BF00BF9D
:101BB00010BD426C61F3CF3242647047026861F33A
:101BC000410202607047026861F3C7120260704709
:101BD000426861F3061242607047026B61F30702CC
:101BE00002637047826861F3C71282607047C268FF
:101BF00061F34D32C260704741B9426922F480728C
:101C00004261426922F40072426127E001290AD14F
:101C1000426922F4807202F580724261426922F4C4
:101C2000007242611AE002290AD1426922F48072EC
:101C30004261426922F4007202F5007242610DE0D5
:101C400003290BD1426922F4807202F5807242614D
:101C5000426922F4007202F500724261704700008E
:101C60002DE9F04385B004460F46904699466846F4
:101C7000FEF7D6FF1448844201D1029E00E0039E85
:101C800006EB86004000B0FBF7F50A20B5FBF0F14B
:101C900000FB1150052803D20A20B5FBF0F503E044
:101CA0000A20B5FBF0F0451CA06865F30F00A060AA
:101CB000E06868F30C30E060206969F30D30206162
:101CC00005B0BDE8F08300000038014041B9C268AA
:101CD00022F40072C260C26822F48062C2601AE01C
:101CE00001290AD1C26822F40072C260C26822F4DB
:101CF000806202F58062C2600DE002290BD1C268E9
:101D000022F4007202F50072C260C26822F480629E
:101D100002F58062C2607047C26861F38202C260ED
:101D20007047C26861F3C302C26070471CB5684661
:101D3000FFF7EAF903212848FFF7E2F901214FF004
:101D40009040FFF7DDF902212448FFF7D9F902207E
:101D50008DF8070000208DF8040001208DF80600A2
:101D60000320009000208DF8050069461A48FFF70F
:101D7000D5F902208DF8070000208DF8040001201D
:101D80008DF80600009000208DF8050069464FF0A0
:101D90009040FFF7C3F902208DF8070000208DF86E
:101DA000040001208DF806000220009000208DF82C
:101DB000050069460948FFF7B1F903208DF80600D0
:101DC00041F61A00009000208DF8050069464FF09A
:101DD0009040FFF7A3F91CBD001400480004004820
:101DE00070B50320FFF794FAFEF7D8FD05460022F0
:101DF0001146FEF788FC044621466FF00B00FEF703
:101E0000D5FDFEF7CBFD054600221146FEF77BFC13
:101E1000044621466FF00A00FEF7C8FDFEF7BEFD3E
:101E2000054600221146FEF76EFC044621466FF07F
:101E30000900FEF7BBFDFEF7B1FD05460022114685
:101E4000FEF761FC044621466FF00400FEF7AEFD8C
:101E5000FEF7A4FD054600221146FEF754FC044699
:101E600021466FF00300FEF7A1FDFEF797FD054642
:101E700000221146FEF747FC044621466FF00100A0
:101E8000FEF794FDFEF78AFD054600221146FEF797
:101E90003AFC044621464FF0FF30FEF787FD002252
:101EA00001210D20FFF7D0F970BD000010B5012110
:101EB0001048FEF7A3FF01210E48401CFEF79EFFCD
:101EC00001210C48401DFEF799FF01210A48FEF749
:101ED00095FF01210848401CFEF790FF01210648AC
:101EE000C01CFEF78BFF01210348401DFEF786FF53
:101EF00010BD0000110014000B0018001FB502A84F
:101F0000FFF702F96846FFF7A5FA002205214FF016
:101F10009040FFF749F902208DF80F0000208DF85E
:101F20000C0002208DF80E002020029000208DF879
:101F30000D0002A94FF09040FFF7F0F800220621B3
:101F40004FF09040FFF730F902208DF80F0000208D
:101F50008DF80C0002208DF80E0040200290002029
:101F60008DF80D0002A94FF09040FFF7D7F800223E
:101F700007214FF09040FFF717F902208DF80F006E
:101F800000208DF80C0002208DF80E0080200290B9
:101F900000208DF80D0002A94FF09040FFF7BEF829
:101FA00000208DF8000001208DF8010000208DF840
:101FB00004008DF8030005208DF8020000208DF844
:101FC00005008DF8060001208DF8070069460448D9
:101FD000FFF75EFA01210248FFF747FA1FBD000034
:101FE0000030014010B5FEF7B5FF40F253101F4915
:101FF000086001210420FEF7E3FD00BF1C48FEF746
:10200000E5FE0128FAD101210020FEF7D9FD00BF2D
:102010000120FEF7DBFE0128FAD11D210020FEF78A
:102020000FFF01210220FEF7CBFD00BF1920FEF7B4
:10203000CDFE0128FAD10020FEF790FD0020FEF72A
:10204000A1FD0020FEF794FD0120FEF7A5FD022072
:10205000FEF7B2FF00BFFEF7CDFF0228FBD1002044
:10206000FEF79AFDFFF70EFB10BD000000200240B6
:102070000100240010B586B0002401A8FEF7D0FDB1
:102080000298C4080020FFF7A7FB0948B4FBF0F052
:102090000849086000204FF0E02188616FF07F4020
:1020A00048610846006940F00100086106B010BDB3
:1020B00040420F000000002000B587B005A8FFF7E0
:1020C00023F8002202214FF09040FFF76DF8042022
:1020D000059002208DF81A0000208DF818008DF868
:1020E000190002208DF81B0005A94FF09040FFF762
:1020F00015F800213248FFF726FC00213048FFF791
:102100001DFC00212E48FFF768FD00212C48FFF739
:102110005AFD002240F227712948FFF7CFFB00212A
:102120002748FFF75FFD02212548FFF751FD0121F8
:102130002348FFF743FD06208DF80C0001208DF8A1
:10214000110000208DF8120001208DF80F000020F2
:102150008DF810008DF80D008DF80E0003AA0021F7
:102160001748FFF735FC4FF4657200211448FFF75C
:10217000D1FB002211461248FFF709FC002211464C
:102180000F48FFF7F5FC00208DF80A008DF80700D6
:102190008DF805008DF808008DF809008DF806000F
:1021A0008DF8040001A90648FFF790FB01210448BF
:1021B000FFF7FFFC01210248FFF7CAFB07B000BD93
:1021C0000040014010B500211148FFF7BCFB002181
:1021D0000F48FFF7B3FB00210D48FFF7FEFC00217D
:1021E0000B48FFF7F0FC42F6DF6241F28731084806
:1021F000FFF764FB01210648FFF7F4FC02210448C5
:10220000FFF7E6FC01210248FFF7A2FB10BD00002A
:10221000002C01401CB56846FEF776FF012209211B
:10222000C806FEF7C1FF02208DF8070000208DF8D8
:10223000040002208DF806000002009000208DF8B6
:10224000050069464FF09040FEF768FF01220A2121
:102250004FF09040FEF7A8FF02208DF80700002005
:102260008DF8040002208DF8060040020090002046
:102270008DF8050069464FF09040FEF74FFF0023B0
:102280001A464FF4E1310C48FFF7EAFC01210A48F5
:10229000FFF747FD01210848FFF73EFD00210648F2
:1022A000FFF714FD00210448FFF7A6FC01210248B6
:1022B000FFF79DFC1CBD0000003801401CB56846BE
:1022C000FEF722FF02208DF8070000208DF80400A1
:1022D00001208DF806000220009000208DF80500F6
:1022E00069460248FEF71AFF1CBD000000140048B2
:1022F00000000000000000000102030406070809B6
:1023000000000000010203040000000001020304B9
:1023100002040608020C0810000000000000000083
:102320000102030406070809E9070101E9070101A1
:102330001F1C1F1E1F1E1F1F1E1F1E1FE90701013E
:10234000E9070101642300080000002024000000C8
:102350000801000888230008240000201C0B00004E
:10236000240100080000000000127A0000000000B4
:10237000000000000000000000000000000000005D
:08238000000000000000000055
:04000005080000CD22
:00000001FF
